{
  "contractName": "EscrowContract",
  "abi": [
    {
      "inputs": [
        {
          "internalType": "address",
          "name": "_usdtToken",
          "type": "address"
        },
        {
          "internalType": "address",
          "name": "_platformWallet",
          "type": "address"
        }
      ],
      "stateMutability": "nonpayable",
      "type": "constructor"
    },
    {
      "anonymous": false,
      "inputs": [
        {
          "indexed": false,
          "internalType": "address",
          "name": "arbitrator",
          "type": "address"
        }
      ],
      "name": "ArbitratorSet",
      "type": "event"
    },
    {
      "anonymous": false,
      "inputs": [
        {
          "indexed": true,
          "internalType": "uint256",
          "name": "escrowId",
          "type": "uint256"
        },
        {
          "indexed": false,
          "internalType": "address",
          "name": "recipient",
          "type": "address"
        },
        {
          "indexed": false,
          "internalType": "uint256",
          "name": "amount",
          "type": "uint256"
        }
      ],
      "name": "DisputeResolved",
      "type": "event"
    },
    {
      "anonymous": false,
      "inputs": [
        {
          "indexed": true,
          "internalType": "uint256",
          "name": "escrowId",
          "type": "uint256"
        },
        {
          "indexed": true,
          "internalType": "address",
          "name": "seller",
          "type": "address"
        },
        {
          "indexed": false,
          "internalType": "uint256",
          "name": "amount",
          "type": "uint256"
        }
      ],
      "name": "EscrowCancelled",
      "type": "event"
    },
    {
      "anonymous": false,
      "inputs": [
        {
          "indexed": true,
          "internalType": "uint256",
          "name": "escrowId",
          "type": "uint256"
        },
        {
          "indexed": true,
          "internalType": "address",
          "name": "seller",
          "type": "address"
        },
        {
          "indexed": true,
          "internalType": "address",
          "name": "buyer",
          "type": "address"
        },
        {
          "indexed": false,
          "internalType": "uint256",
          "name": "amount",
          "type": "uint256"
        },
        {
          "indexed": false,
          "internalType": "uint256",
          "name": "fee",
          "type": "uint256"
        }
      ],
      "name": "EscrowCreated",
      "type": "event"
    },
    {
      "anonymous": false,
      "inputs": [
        {
          "indexed": true,
          "internalType": "uint256",
          "name": "escrowId",
          "type": "uint256"
        },
        {
          "indexed": false,
          "internalType": "string",
          "name": "instructions",
          "type": "string"
        }
      ],
      "name": "EscrowRelayed",
      "type": "event"
    },
    {
      "anonymous": false,
      "inputs": [
        {
          "indexed": true,
          "internalType": "uint256",
          "name": "escrowId",
          "type": "uint256"
        },
        {
          "indexed": true,
          "internalType": "address",
          "name": "buyer",
          "type": "address"
        },
        {
          "indexed": false,
          "internalType": "uint256",
          "name": "amount",
          "type": "uint256"
        },
        {
          "indexed": false,
          "internalType": "uint256",
          "name": "fee",
          "type": "uint256"
        }
      ],
      "name": "EscrowReleased",
      "type": "event"
    },
    {
      "anonymous": false,
      "inputs": [
        {
          "indexed": false,
          "internalType": "uint256",
          "name": "amount",
          "type": "uint256"
        },
        {
          "indexed": false,
          "internalType": "address",
          "name": "to",
          "type": "address"
        }
      ],
      "name": "FeesSwept",
      "type": "event"
    },
    {
      "anonymous": false,
      "inputs": [
        {
          "indexed": false,
          "internalType": "uint256",
          "name": "amount",
          "type": "uint256"
        },
        {
          "indexed": false,
          "internalType": "address",
          "name": "to",
          "type": "address"
        }
      ],
      "name": "FeesWithdrawn",
      "type": "event"
    },
    {
      "anonymous": false,
      "inputs": [
        {
          "indexed": false,
          "internalType": "address",
          "name": "owner",
          "type": "address"
        }
      ],
      "name": "OwnerSet",
      "type": "event"
    },
    {
      "anonymous": false,
      "inputs": [
        {
          "indexed": false,
          "internalType": "address",
          "name": "relayer",
          "type": "address"
        }
      ],
      "name": "RelayerSet",
      "type": "event"
    },
    {
      "anonymous": false,
      "inputs": [
        {
          "indexed": false,
          "internalType": "address",
          "name": "withdrawalAddress",
          "type": "address"
        }
      ],
      "name": "WithdrawalAddressSet",
      "type": "event"
    },
    {
      "anonymous": false,
      "inputs": [
        {
          "indexed": false,
          "internalType": "address",
          "name": "withdrawer",
          "type": "address"
        }
      ],
      "name": "WithdrawerSet",
      "type": "event"
    },
    {
      "inputs": [],
      "name": "arbitrator",
      "outputs": [
        {
          "internalType": "address",
          "name": "",
          "type": "address"
        }
      ],
      "stateMutability": "view",
      "type": "function"
    },
    {
      "inputs": [],
      "name": "escrowCounter",
      "outputs": [
        {
          "internalType": "uint256",
          "name": "",
          "type": "uint256"
        }
      ],
      "stateMutability": "view",
      "type": "function"
    },
    {
      "inputs": [
        {
          "internalType": "uint256",
          "name": "",
          "type": "uint256"
        }
      ],
      "name": "escrows",
      "outputs": [
        {
          "internalType": "address",
          "name": "seller",
          "type": "address"
        },
        {
          "internalType": "address",
          "name": "buyer",
          "type": "address"
        },
        {
          "internalType": "uint256",
          "name": "amount",
          "type": "uint256"
        },
        {
          "internalType": "uint256",
          "name": "fee",
          "type": "uint256"
        },
        {
          "internalType": "enum EscrowContract.EscrowStatus",
          "name": "status",
          "type": "uint8"
        }
      ],
      "stateMutability": "view",
      "type": "function"
    },
    {
      "inputs": [],
      "name": "feeToBePayed",
      "outputs": [
        {
          "internalType": "uint256",
          "name": "",
          "type": "uint256"
        }
      ],
      "stateMutability": "view",
      "type": "function"
    },
    {
      "inputs": [],
      "name": "owner",
      "outputs": [
        {
          "internalType": "address",
          "name": "",
          "type": "address"
        }
      ],
      "stateMutability": "view",
      "type": "function"
    },
    {
      "inputs": [],
      "name": "platformFees",
      "outputs": [
        {
          "internalType": "uint256",
          "name": "",
          "type": "uint256"
        }
      ],
      "stateMutability": "view",
      "type": "function"
    },
    {
      "inputs": [],
      "name": "relayer",
      "outputs": [
        {
          "internalType": "address",
          "name": "",
          "type": "address"
        }
      ],
      "stateMutability": "view",
      "type": "function"
    },
    {
      "inputs": [],
      "name": "usdtToken",
      "outputs": [
        {
          "internalType": "address",
          "name": "",
          "type": "address"
        }
      ],
      "stateMutability": "view",
      "type": "function"
    },
    {
      "inputs": [],
      "name": "withdrawalAddress",
      "outputs": [
        {
          "internalType": "address",
          "name": "",
          "type": "address"
        }
      ],
      "stateMutability": "view",
      "type": "function"
    },
    {
      "inputs": [],
      "name": "withdrawer",
      "outputs": [
        {
          "internalType": "address",
          "name": "",
          "type": "address"
        }
      ],
      "stateMutability": "view",
      "type": "function"
    },
    {
      "inputs": [
        {
          "internalType": "address",
          "name": "_owner",
          "type": "address"
        }
      ],
      "name": "setOwner",
      "outputs": [],
      "stateMutability": "nonpayable",
      "type": "function"
    },
    {
      "inputs": [
        {
          "internalType": "address",
          "name": "_arbitrator",
          "type": "address"
        }
      ],
      "name": "setArbitrator",
      "outputs": [],
      "stateMutability": "nonpayable",
      "type": "function"
    },
    {
      "inputs": [
        {
          "internalType": "address",
          "name": "_relayer",
          "type": "address"
        }
      ],
      "name": "setRelayer",
      "outputs": [],
      "stateMutability": "nonpayable",
      "type": "function"
    },
    {
      "inputs": [
        {
          "internalType": "address",
          "name": "_withdrawalAddress",
          "type": "address"
        }
      ],
      "name": "setWithdrawalAddress",
      "outputs": [],
      "stateMutability": "nonpayable",
      "type": "function"
    },
    {
      "inputs": [
        {
          "internalType": "address",
          "name": "_withdrawer",
          "type": "address"
        }
      ],
      "name": "setWithdrawer",
      "outputs": [],
      "stateMutability": "nonpayable",
      "type": "function"
    },
    {
      "inputs": [],
      "name": "sweepFees",
      "outputs": [],
      "stateMutability": "nonpayable",
      "type": "function"
    },
    {
      "inputs": [
        {
          "internalType": "uint256",
          "name": "amount",
          "type": "uint256"
        }
      ],
      "name": "withdrawFees",
      "outputs": [],
      "stateMutability": "nonpayable",
      "type": "function"
    },
    {
      "inputs": [
        {
          "internalType": "uint256",
          "name": "escrowId",
          "type": "uint256"
        },
        {
          "internalType": "string",
          "name": "instructions",
          "type": "string"
        }
      ],
      "name": "relay",
      "outputs": [],
      "stateMutability": "nonpayable",
      "type": "function"
    },
    {
      "inputs": [
        {
          "internalType": "uint256",
          "name": "escrowId",
          "type": "uint256"
        },
        {
          "internalType": "address",
          "name": "recipient",
          "type": "address"
        }
      ],
      "name": "resolveDispute",
      "outputs": [],
      "stateMutability": "nonpayable",
      "type": "function"
    },
    {
      "inputs": [
        {
          "internalType": "address",
          "name": "buyer",
          "type": "address"
        },
        {
          "internalType": "uint256",
          "name": "amount",
          "type": "uint256"
        }
      ],
      "name": "createEscrow",
      "outputs": [],
      "stateMutability": "nonpayable",
      "type": "function"
    },
    {
      "inputs": [
        {
          "internalType": "uint256",
          "name": "escrowId",
          "type": "uint256"
        }
      ],
      "name": "releaseEscrow",
      "outputs": [],
      "stateMutability": "nonpayable",
      "type": "function"
    },
    {
      "inputs": [
        {
          "internalType": "uint256",
          "name": "escrowId",
          "type": "uint256"
        }
      ],
      "name": "cancelEscrow",
      "outputs": [],
      "stateMutability": "nonpayable",
      "type": "function"
    }
  ],
  "bytecode": "0x608060405260c860095534801562000015575f80fd5b5060405162002baa38038062002baa83398181016040528101906200003b919062000167565b815f806101000a81548173ffffffffffffffffffffffffffffffffffffffff021916908373ffffffffffffffffffffffffffffffffffffffff1602179055508060045f6101000a81548173ffffffffffffffffffffffffffffffffffffffff021916908373ffffffffffffffffffffffffffffffffffffffff1602179055503360015f6101000a81548173ffffffffffffffffffffffffffffffffffffffff021916908373ffffffffffffffffffffffffffffffffffffffff1602179055505050620001ac565b5f80fd5b5f73ffffffffffffffffffffffffffffffffffffffff82169050919050565b5f620001318262000106565b9050919050565b620001438162000125565b81146200014e575f80fd5b50565b5f81519050620001618162000138565b92915050565b5f806040838503121562000180576200017f62000102565b5b5f6200018f8582860162000151565b9250506020620001a28582860162000151565b9150509250929050565b6129f080620001ba5f395ff3fe608060405234801561000f575f80fd5b5060043610610140575f3560e01c80636cc6cde1116100b6578063c7ceafea1161007a578063c7ceafea14610328578063cdc1842414610346578063d113b95c14610364578063e01824361461036e578063ed6531641461038a578063f2bcd022146103a657610140565b80636cc6cde1146102945780638406c079146102b25780638da5cb5b146102d0578063a98ad46c146102ee578063b0eefabe1461030c57610140565b8063194a4e7e11610108578063194a4e7e146101ea57806321b8092e146102085780632ae0a752146102245780634614874e146102405780635e318e071461025c5780636548e9bc1461027857610140565b8063012f52ee146101445780630d174c24146101785780630e33599d146101945780631346254f146101b057806313af4035146101ce575b5f80fd5b61015e60048036038101906101599190611bfc565b6103c4565b60405161016f959493929190611ce8565b60405180910390f35b610192600480360381019061018d9190611d63565b610440565b005b6101ae60048036038101906101a99190611d8e565b610549565b005b6101b86107ca565b6040516101c59190611dcc565b60405180910390f35b6101e860048036038101906101e39190611d63565b6107d0565b005b6101f26108d9565b6040516101ff9190611dcc565b60405180910390f35b610222600480360381019061021d9190611d63565b6108df565b005b61023e60048036038101906102399190611f21565b6109e8565b005b61025a60048036038101906102559190611f7b565b610b3e565b005b61027660048036038101906102719190611bfc565b610e8c565b005b610292600480360381019061028d9190611d63565b6110cf565b005b61029c6111d8565b6040516102a99190611fb9565b60405180910390f35b6102ba6111fd565b6040516102c79190611fb9565b60405180910390f35b6102d8611222565b6040516102e59190611fb9565b60405180910390f35b6102f6611247565b6040516103039190611fb9565b60405180910390f35b61032660048036038101906103219190611d63565b61126a565b005b610330611373565b60405161033d9190611dcc565b60405180910390f35b61034e611379565b60405161035b9190611fb9565b60405180910390f35b61036c61139e565b005b61038860048036038101906103839190611bfc565b6115d5565b005b6103a4600480360381019061039f9190611bfc565b6118b1565b005b6103ae611b93565b6040516103bb9190611fb9565b60405180910390f35b6007602052805f5260405f205f91509050805f015f9054906101000a900473ffffffffffffffffffffffffffffffffffffffff1690806001015f9054906101000a900473ffffffffffffffffffffffffffffffffffffffff1690806002015490806003015490806004015f9054906101000a900460ff16905085565b60015f9054906101000a900473ffffffffffffffffffffffffffffffffffffffff1673ffffffffffffffffffffffffffffffffffffffff163373ffffffffffffffffffffffffffffffffffffffff16146104cf576040517f08c379a00000000000000000000000000000000000000000000000000000000081526004016104c69061202c565b60405180910390fd5b8060055f6101000a81548173ffffffffffffffffffffffffffffffffffffffff021916908373ffffffffffffffffffffffffffffffffffffffff1602179055507f30f958c8ed047626d81e97e1b5ade519f0480390f4d8341bb9705e86306178338160405161053e9190611fb9565b60405180910390a150565b60025f9054906101000a900473ffffffffffffffffffffffffffffffffffffffff1673ffffffffffffffffffffffffffffffffffffffff163373ffffffffffffffffffffffffffffffffffffffff16146105d8576040517f08c379a00000000000000000000000000000000000000000000000000000000081526004016105cf90612094565b60405180910390fd5b5f60075f8481526020019081526020015f2090505f60028111156105ff576105fe611c75565b5b816004015f9054906101000a900460ff16600281111561062257610621611c75565b5b14610662576040517f08c379a0000000000000000000000000000000000000000000000000000000008152600401610659906120fc565b60405180910390fd5b6001816004015f6101000a81548160ff0219169083600281111561068957610688611c75565b5b02179055505f8054906101000a900473ffffffffffffffffffffffffffffffffffffffff1673ffffffffffffffffffffffffffffffffffffffff1663a9059cbb8383600201546040518363ffffffff1660e01b81526004016106ec92919061211a565b6020604051808303815f875af1158015610708573d5f803e3d5ffd5b505050506040513d601f19601f8201168201806040525081019061072c9190612176565b61076b576040517f08c379a0000000000000000000000000000000000000000000000000000000008152600401610762906121eb565b60405180910390fd5b806003015460065f8282546107809190612236565b92505081905550827fdf0baf5489595ea17a097d16827d60793e2f57f3b85a982e5d7e02838b841ee68383600201546040516107bd92919061211a565b60405180910390a2505050565b60095481565b60015f9054906101000a900473ffffffffffffffffffffffffffffffffffffffff1673ffffffffffffffffffffffffffffffffffffffff163373ffffffffffffffffffffffffffffffffffffffff161461085f576040517f08c379a00000000000000000000000000000000000000000000000000000000081526004016108569061202c565b60405180910390fd5b8060015f6101000a81548173ffffffffffffffffffffffffffffffffffffffff021916908373ffffffffffffffffffffffffffffffffffffffff1602179055507f50146d0e3c60aa1d17a70635b05494f864e86144a2201275021014fbf08bafe2816040516108ce9190611fb9565b60405180910390a150565b60065481565b60015f9054906101000a900473ffffffffffffffffffffffffffffffffffffffff1673ffffffffffffffffffffffffffffffffffffffff163373ffffffffffffffffffffffffffffffffffffffff161461096e576040517f08c379a00000000000000000000000000000000000000000000000000000000081526004016109659061202c565b60405180910390fd5b8060045f6101000a81548173ffffffffffffffffffffffffffffffffffffffff021916908373ffffffffffffffffffffffffffffffffffffffff1602179055507f66bd5eddcaea62631fc3d03cff2d463154d0c3bf23bb98750762931a81b94289816040516109dd9190611fb9565b60405180910390a150565b60035f9054906101000a900473ffffffffffffffffffffffffffffffffffffffff1673ffffffffffffffffffffffffffffffffffffffff163373ffffffffffffffffffffffffffffffffffffffff1614610a77576040517f08c379a0000000000000000000000000000000000000000000000000000000008152600401610a6e906122b3565b60405180910390fd5b5f60075f8481526020019081526020015f2090505f6002811115610a9e57610a9d611c75565b5b816004015f9054906101000a900460ff166002811115610ac157610ac0611c75565b5b14610b01576040517f08c379a0000000000000000000000000000000000000000000000000000000008152600401610af8906120fc565b60405180910390fd5b827f494aee9f5e0d1ee2da7b5eac49fb5c2d3be7a186378636cfbfcdb4f9c6a3ed0383604051610b31919061233b565b60405180910390a2505050565b5f73ffffffffffffffffffffffffffffffffffffffff168273ffffffffffffffffffffffffffffffffffffffff1603610bac576040517f08c379a0000000000000000000000000000000000000000000000000000000008152600401610ba3906123a5565b60405180910390fd5b5f8111610bee576040517f08c379a0000000000000000000000000000000000000000000000000000000008152600401610be59061240d565b60405180910390fd5b5f61271060095483610c00919061242b565b610c0a9190612499565b90505f8054906101000a900473ffffffffffffffffffffffffffffffffffffffff1673ffffffffffffffffffffffffffffffffffffffff166323b872dd3330856040518463ffffffff1660e01b8152600401610c68939291906124c9565b6020604051808303815f875af1158015610c84573d5f803e3d5ffd5b505050506040513d601f19601f82011682018060405250810190610ca89190612176565b505f60085f815480929190610cbc906124fe565b9190505590506040518060a001604052803373ffffffffffffffffffffffffffffffffffffffff1681526020018573ffffffffffffffffffffffffffffffffffffffff1681526020018385610d119190612545565b81526020018381526020015f6002811115610d2f57610d2e611c75565b5b81525060075f8381526020019081526020015f205f820151815f015f6101000a81548173ffffffffffffffffffffffffffffffffffffffff021916908373ffffffffffffffffffffffffffffffffffffffff1602179055506020820151816001015f6101000a81548173ffffffffffffffffffffffffffffffffffffffff021916908373ffffffffffffffffffffffffffffffffffffffff16021790555060408201518160020155606082015181600301556080820151816004015f6101000a81548160ff02191690836002811115610e0b57610e0a611c75565b5b02179055509050508373ffffffffffffffffffffffffffffffffffffffff163373ffffffffffffffffffffffffffffffffffffffff16827f59e4b8728799382406714f1c57de5c893d2772f9a8bf9950c5afe4397e6486548587610e6f9190612545565b86604051610e7e929190612578565b60405180910390a450505050565b60055f9054906101000a900473ffffffffffffffffffffffffffffffffffffffff1673ffffffffffffffffffffffffffffffffffffffff163373ffffffffffffffffffffffffffffffffffffffff1614610f1b576040517f08c379a0000000000000000000000000000000000000000000000000000000008152600401610f12906125e9565b60405180910390fd5b600654811115610f60576040517f08c379a0000000000000000000000000000000000000000000000000000000008152600401610f5790612651565b60405180910390fd5b8060065f828254610f719190612545565b925050819055505f8054906101000a900473ffffffffffffffffffffffffffffffffffffffff1673ffffffffffffffffffffffffffffffffffffffff1663a9059cbb60045f9054906101000a900473ffffffffffffffffffffffffffffffffffffffff16836040518363ffffffff1660e01b8152600401610ff392919061211a565b6020604051808303815f875af115801561100f573d5f803e3d5ffd5b505050506040513d601f19601f820116820180604052508101906110339190612176565b611072576040517f08c379a0000000000000000000000000000000000000000000000000000000008152600401611069906126b9565b60405180910390fd5b7f812bcf6853ebc81dc0a1d2323893eedad6cd086a4398311a699e0a7acdf187b38160045f9054906101000a900473ffffffffffffffffffffffffffffffffffffffff166040516110c49291906126d7565b60405180910390a150565b60015f9054906101000a900473ffffffffffffffffffffffffffffffffffffffff1673ffffffffffffffffffffffffffffffffffffffff163373ffffffffffffffffffffffffffffffffffffffff161461115e576040517f08c379a00000000000000000000000000000000000000000000000000000000081526004016111559061202c565b60405180910390fd5b8060035f6101000a81548173ffffffffffffffffffffffffffffffffffffffff021916908373ffffffffffffffffffffffffffffffffffffffff1602179055507fb7041340e0c2a075059bf0488a71c767724be15dae8e737f8460007325e8d857816040516111cd9190611fb9565b60405180910390a150565b60025f9054906101000a900473ffffffffffffffffffffffffffffffffffffffff1681565b60035f9054906101000a900473ffffffffffffffffffffffffffffffffffffffff1681565b60015f9054906101000a900473ffffffffffffffffffffffffffffffffffffffff1681565b5f8054906101000a900473ffffffffffffffffffffffffffffffffffffffff1681565b60015f9054906101000a900473ffffffffffffffffffffffffffffffffffffffff1673ffffffffffffffffffffffffffffffffffffffff163373ffffffffffffffffffffffffffffffffffffffff16146112f9576040517f08c379a00000000000000000000000000000000000000000000000000000000081526004016112f09061202c565b60405180910390fd5b8060025f6101000a81548173ffffffffffffffffffffffffffffffffffffffff021916908373ffffffffffffffffffffffffffffffffffffffff1602179055507f51744122301b50e919f4e3d22adf8c53abc92195b8c667eda98c6ef20375672e816040516113689190611fb9565b60405180910390a150565b60085481565b60055f9054906101000a900473ffffffffffffffffffffffffffffffffffffffff1681565b60015f9054906101000a900473ffffffffffffffffffffffffffffffffffffffff1673ffffffffffffffffffffffffffffffffffffffff163373ffffffffffffffffffffffffffffffffffffffff161461142d576040517f08c379a00000000000000000000000000000000000000000000000000000000081526004016114249061202c565b60405180910390fd5b5f60065411611471576040517f08c379a000000000000000000000000000000000000000000000000000000000815260040161146890612748565b60405180910390fd5b5f60065490505f6006819055505f8054906101000a900473ffffffffffffffffffffffffffffffffffffffff1673ffffffffffffffffffffffffffffffffffffffff1663a9059cbb60045f9054906101000a900473ffffffffffffffffffffffffffffffffffffffff16836040518363ffffffff1660e01b81526004016114f992919061211a565b6020604051808303815f875af1158015611515573d5f803e3d5ffd5b505050506040513d601f19601f820116820180604052508101906115399190612176565b611578576040517f08c379a000000000000000000000000000000000000000000000000000000000815260040161156f906127b0565b60405180910390fd5b7f4025af2dcdb6b150a571b1004fc816df43af438693d4f7efb984872fa4b37d7b8160045f9054906101000a900473ffffffffffffffffffffffffffffffffffffffff166040516115ca9291906126d7565b60405180910390a150565b5f60075f8381526020019081526020015f2090505f60028111156115fc576115fb611c75565b5b816004015f9054906101000a900460ff16600281111561161f5761161e611c75565b5b1461165f576040517f08c379a0000000000000000000000000000000000000000000000000000000008152600401611656906120fc565b60405180910390fd5b805f015f9054906101000a900473ffffffffffffffffffffffffffffffffffffffff1673ffffffffffffffffffffffffffffffffffffffff163373ffffffffffffffffffffffffffffffffffffffff16146116ef576040517f08c379a00000000000000000000000000000000000000000000000000000000081526004016116e69061283e565b60405180910390fd5b6002816004015f6101000a81548160ff0219169083600281111561171657611715611c75565b5b02179055505f8054906101000a900473ffffffffffffffffffffffffffffffffffffffff1673ffffffffffffffffffffffffffffffffffffffff1663a9059cbb825f015f9054906101000a900473ffffffffffffffffffffffffffffffffffffffff168360030154846002015461178d9190612236565b6040518363ffffffff1660e01b81526004016117aa92919061211a565b6020604051808303815f875af11580156117c6573d5f803e3d5ffd5b505050506040513d601f19601f820116820180604052508101906117ea9190612176565b611829576040517f08c379a0000000000000000000000000000000000000000000000000000000008152600401611820906128a6565b60405180910390fd5b805f015f9054906101000a900473ffffffffffffffffffffffffffffffffffffffff1673ffffffffffffffffffffffffffffffffffffffff16827fdb19fb28f3e1bd98931a09b28e0c217ab5008bfb3cbb1bdd406d994ad534a735836003015484600201546118989190612236565b6040516118a59190611dcc565b60405180910390a35050565b5f60075f8381526020019081526020015f2090505f60028111156118d8576118d7611c75565b5b816004015f9054906101000a900460ff1660028111156118fb576118fa611c75565b5b1461193b576040517f08c379a0000000000000000000000000000000000000000000000000000000008152600401611932906120fc565b60405180910390fd5b805f015f9054906101000a900473ffffffffffffffffffffffffffffffffffffffff1673ffffffffffffffffffffffffffffffffffffffff163373ffffffffffffffffffffffffffffffffffffffff16146119cb576040517f08c379a00000000000000000000000000000000000000000000000000000000081526004016119c290612934565b60405180910390fd5b6001816004015f6101000a81548160ff021916908360028111156119f2576119f1611c75565b5b02179055505f8054906101000a900473ffffffffffffffffffffffffffffffffffffffff1673ffffffffffffffffffffffffffffffffffffffff1663a9059cbb826001015f9054906101000a900473ffffffffffffffffffffffffffffffffffffffff1683600201546040518363ffffffff1660e01b8152600401611a7892919061211a565b6020604051808303815f875af1158015611a94573d5f803e3d5ffd5b505050506040513d601f19601f82011682018060405250810190611ab89190612176565b611af7576040517f08c379a0000000000000000000000000000000000000000000000000000000008152600401611aee9061299c565b60405180910390fd5b806003015460065f828254611b0c9190612236565b92505081905550806001015f9054906101000a900473ffffffffffffffffffffffffffffffffffffffff1673ffffffffffffffffffffffffffffffffffffffff16827f07dd78b97459a0754e75d3d53bbd26afd8a683f317c40b50eea07d05c49f966b83600201548460030154604051611b87929190612578565b60405180910390a35050565b60045f9054906101000a900473ffffffffffffffffffffffffffffffffffffffff1681565b5f604051905090565b5f80fd5b5f80fd5b5f819050919050565b611bdb81611bc9565b8114611be5575f80fd5b50565b5f81359050611bf681611bd2565b92915050565b5f60208284031215611c1157611c10611bc1565b5b5f611c1e84828501611be8565b91505092915050565b5f73ffffffffffffffffffffffffffffffffffffffff82169050919050565b5f611c5082611c27565b9050919050565b611c6081611c46565b82525050565b611c6f81611bc9565b82525050565b7f4e487b71000000000000000000000000000000000000000000000000000000005f52602160045260245ffd5b60038110611cb357611cb2611c75565b5b50565b5f819050611cc382611ca2565b919050565b5f611cd282611cb6565b9050919050565b611ce281611cc8565b82525050565b5f60a082019050611cfb5f830188611c57565b611d086020830187611c57565b611d156040830186611c66565b611d226060830185611c66565b611d2f6080830184611cd9565b9695505050505050565b611d4281611c46565b8114611d4c575f80fd5b50565b5f81359050611d5d81611d39565b92915050565b5f60208284031215611d7857611d77611bc1565b5b5f611d8584828501611d4f565b91505092915050565b5f8060408385031215611da457611da3611bc1565b5b5f611db185828601611be8565b9250506020611dc285828601611d4f565b9150509250929050565b5f602082019050611ddf5f830184611c66565b92915050565b5f80fd5b5f80fd5b5f601f19601f8301169050919050565b7f4e487b71000000000000000000000000000000000000000000000000000000005f52604160045260245ffd5b611e3382611ded565b810181811067ffffffffffffffff82111715611e5257611e51611dfd565b5b80604052505050565b5f611e64611bb8565b9050611e708282611e2a565b919050565b5f67ffffffffffffffff821115611e8f57611e8e611dfd565b5b611e9882611ded565b9050602081019050919050565b828183375f83830152505050565b5f611ec5611ec084611e75565b611e5b565b905082815260208101848484011115611ee157611ee0611de9565b5b611eec848285611ea5565b509392505050565b5f82601f830112611f0857611f07611de5565b5b8135611f18848260208601611eb3565b91505092915050565b5f8060408385031215611f3757611f36611bc1565b5b5f611f4485828601611be8565b925050602083013567ffffffffffffffff811115611f6557611f64611bc5565b5b611f7185828601611ef4565b9150509250929050565b5f8060408385031215611f9157611f90611bc1565b5b5f611f9e85828601611d4f565b9250506020611faf85828601611be8565b9150509250929050565b5f602082019050611fcc5f830184611c57565b92915050565b5f82825260208201905092915050565b7f4e6f7420746865206f776e6572000000000000000000000000000000000000005f82015250565b5f612016600d83611fd2565b915061202182611fe2565b602082019050919050565b5f6020820190508181035f8301526120438161200a565b9050919050565b7f4e6f74207468652061726269747261746f7200000000000000000000000000005f82015250565b5f61207e601283611fd2565b91506120898261204a565b602082019050919050565b5f6020820190508181035f8301526120ab81612072565b9050919050565b7f457363726f77206e6f7420696e2070656e64696e6720737461746500000000005f82015250565b5f6120e6601b83611fd2565b91506120f1826120b2565b602082019050919050565b5f6020820190508181035f830152612113816120da565b9050919050565b5f60408201905061212d5f830185611c57565b61213a6020830184611c66565b9392505050565b5f8115159050919050565b61215581612141565b811461215f575f80fd5b50565b5f815190506121708161214c565b92915050565b5f6020828403121561218b5761218a611bc1565b5b5f61219884828501612162565b91505092915050565b7f5472616e73666572206661696c656400000000000000000000000000000000005f82015250565b5f6121d5600f83611fd2565b91506121e0826121a1565b602082019050919050565b5f6020820190508181035f830152612202816121c9565b9050919050565b7f4e487b71000000000000000000000000000000000000000000000000000000005f52601160045260245ffd5b5f61224082611bc9565b915061224b83611bc9565b925082820190508082111561226357612262612209565b5b92915050565b7f4e6f74207468652072656c6179657200000000000000000000000000000000005f82015250565b5f61229d600f83611fd2565b91506122a882612269565b602082019050919050565b5f6020820190508181035f8301526122ca81612291565b9050919050565b5f81519050919050565b5f5b838110156122f85780820151818401526020810190506122dd565b5f8484015250505050565b5f61230d826122d1565b6123178185611fd2565b93506123278185602086016122db565b61233081611ded565b840191505092915050565b5f6020820190508181035f8301526123538184612303565b905092915050565b7f496e76616c6964206275796572206164647265737300000000000000000000005f82015250565b5f61238f601583611fd2565b915061239a8261235b565b602082019050919050565b5f6020820190508181035f8301526123bc81612383565b9050919050565b7f416d6f756e74206d7573742062652067726561746572207468616e207a65726f5f82015250565b5f6123f7602083611fd2565b9150612402826123c3565b602082019050919050565b5f6020820190508181035f830152612424816123eb565b9050919050565b5f61243582611bc9565b915061244083611bc9565b925082820261244e81611bc9565b9150828204841483151761246557612464612209565b5b5092915050565b7f4e487b71000000000000000000000000000000000000000000000000000000005f52601260045260245ffd5b5f6124a382611bc9565b91506124ae83611bc9565b9250826124be576124bd61246c565b5b828204905092915050565b5f6060820190506124dc5f830186611c57565b6124e96020830185611c57565b6124f66040830184611c66565b949350505050565b5f61250882611bc9565b91507fffffffffffffffffffffffffffffffffffffffffffffffffffffffffffffffff820361253a57612539612209565b5b600182019050919050565b5f61254f82611bc9565b915061255a83611bc9565b925082820390508181111561257257612571612209565b5b92915050565b5f60408201905061258b5f830185611c66565b6125986020830184611c66565b9392505050565b7f4e6f7420746865207769746864726177657200000000000000000000000000005f82015250565b5f6125d3601283611fd2565b91506125de8261259f565b602082019050919050565b5f6020820190508181035f830152612600816125c7565b9050919050565b7f496e73756666696369656e7420666565730000000000000000000000000000005f82015250565b5f61263b601183611fd2565b915061264682612607565b602082019050919050565b5f6020820190508181035f8301526126688161262f565b9050919050565b7f5769746864726177616c206661696c65640000000000000000000000000000005f82015250565b5f6126a3601183611fd2565b91506126ae8261266f565b602082019050919050565b5f6020820190508181035f8301526126d081612697565b9050919050565b5f6040820190506126ea5f830185611c66565b6126f76020830184611c57565b9392505050565b7f4e6f206665657320746f207377656570000000000000000000000000000000005f82015250565b5f612732601083611fd2565b915061273d826126fe565b602082019050919050565b5f6020820190508181035f83015261275f81612726565b9050919050565b7f466565207472616e73666572206661696c6564000000000000000000000000005f82015250565b5f61279a601383611fd2565b91506127a582612766565b602082019050919050565b5f6020820190508181035f8301526127c78161278e565b9050919050565b7f4f6e6c79207468652073656c6c65722063616e2063616e63656c2074686520655f8201527f7363726f77000000000000000000000000000000000000000000000000000000602082015250565b5f612828602583611fd2565b9150612833826127ce565b604082019050919050565b5f6020820190508181035f8301526128558161281c565b9050919050565b7f526566756e6420746f2073656c6c6572206661696c65640000000000000000005f82015250565b5f612890601783611fd2565b915061289b8261285c565b602082019050919050565b5f6020820190508181035f8301526128bd81612884565b9050919050565b7f4f6e6c79207468652073656c6c65722063616e2072656c6561736520746865205f8201527f657363726f770000000000000000000000000000000000000000000000000000602082015250565b5f61291e602683611fd2565b9150612929826128c4565b604082019050919050565b5f6020820190508181035f83015261294b81612912565b9050919050565b7f5472616e7366657220746f206275796572206661696c656400000000000000005f82015250565b5f612986601883611fd2565b915061299182612952565b602082019050919050565b5f6020820190508181035f8301526129b38161297a565b905091905056fea2646970667358221220b5c3313c1a3ce4480d16afa27fb69be40ee4c2d73e6414d609ebe18ae6049f5664736f6c63430008150033",
  "immutableReferences": {},
  "source": "// SPDX-License-Identifier: MIT\r\npragma solidity ^0.8.20;\r\n\r\ninterface IERC20 {\r\n    function transferFrom(address sender, address recipient, uint amount) external returns (bool);\r\n    function transfer(address to, uint value) external returns (bool);\r\n}\r\n\r\ncontract EscrowContract {\r\n \r\n    address public usdtToken;\r\n    address public owner; \r\n    address public arbitrator;            \r\n    address public relayer;                \r\n    address public withdrawalAddress;     \r\n    address public withdrawer;    \r\n    uint public platformFees;\r\n   \r\n    enum EscrowStatus { Pending, Released, Cancelled }\r\n\r\n\r\n    struct Escrow {\r\n        address seller;         \r\n        address buyer;          \r\n        uint amount;         \r\n        uint fee;            \r\n        EscrowStatus status;    \r\n    }\r\n\r\n    \r\n    mapping(uint => Escrow) public escrows;\r\n    \r\n    uint public escrowCounter;\r\n\r\n    uint public feeToBePayed = 200;\r\n\r\n    \r\n    event EscrowCreated(uint indexed escrowId, address indexed seller, address indexed buyer, uint amount, uint fee);\r\n    \r\n    event EscrowReleased(uint indexed escrowId, address indexed buyer, uint amount, uint fee);\r\n    \r\n    event EscrowCancelled(uint indexed escrowId, address indexed seller, uint amount);\r\n    \r\n    event EscrowRelayed(uint indexed escrowId, string instructions);\r\n    event DisputeResolved(uint indexed escrowId, address recipient, uint amount);\r\n    event ArbitratorSet(address arbitrator);\r\n    event OwnerSet(address owner);\r\n    event RelayerSet(address relayer);\r\n    event WithdrawalAddressSet(address withdrawalAddress);\r\n    event WithdrawerSet(address withdrawer);\r\n    event FeesSwept(uint amount, address to);\r\n    event FeesWithdrawn(uint amount, address to);\r\n    \r\n    \r\n    modifier onlyOwner() {\r\n        require(msg.sender == owner, \"Not the owner\");\r\n        _;\r\n    }\r\n    \r\n    modifier onlyArbitrator() {\r\n        require(msg.sender == arbitrator, \"Not the arbitrator\");\r\n        _;\r\n    }\r\n\r\n    modifier onlyRelayer() {\r\n        require(msg.sender == relayer, \"Not the relayer\");\r\n        _;\r\n    }\r\n\r\n    modifier onlyWithdrawer() {\r\n        require(msg.sender == withdrawer, \"Not the withdrawer\");\r\n        _;\r\n    }\r\n\r\n\r\n\r\n     constructor(address _usdtToken, address _platformWallet)  {\r\n        usdtToken = _usdtToken;           \r\n        withdrawalAddress = _platformWallet;\r\n        owner = msg.sender;\r\n    }\r\n    \r\n    function setOwner(address _owner) external onlyOwner {\r\n        owner = _owner;\r\n        emit OwnerSet(_owner);\r\n    }    \r\n    \r\n     function setArbitrator(address _arbitrator) external onlyOwner {\r\n        arbitrator = _arbitrator;\r\n        emit ArbitratorSet(_arbitrator);\r\n    }\r\n\r\n    function setRelayer(address _relayer) external onlyOwner {\r\n        relayer = _relayer;\r\n        emit RelayerSet(_relayer);\r\n    }\r\n    \r\n    \r\n    function setWithdrawalAddress(address _withdrawalAddress) external onlyOwner {\r\n        withdrawalAddress = _withdrawalAddress;\r\n        emit WithdrawalAddressSet(_withdrawalAddress);\r\n    }\r\n\r\n   \r\n    function setWithdrawer(address _withdrawer) external onlyOwner {\r\n        withdrawer = _withdrawer;\r\n        emit WithdrawerSet(_withdrawer);\r\n    }\r\n\r\n    \r\n    function sweepFees() external onlyOwner {\r\n        require(platformFees > 0, \"No fees to sweep\");\r\n        uint amount = platformFees;\r\n        platformFees = 0;\r\n        require(IERC20(usdtToken).transfer(withdrawalAddress, amount), \"Fee transfer failed\");\r\n        emit FeesSwept(amount, withdrawalAddress);\r\n    }\r\n\r\n   \r\n    function withdrawFees(uint amount) external onlyWithdrawer {\r\n        require(amount <= platformFees, \"Insufficient fees\");\r\n        platformFees -= amount;\r\n        require(IERC20(usdtToken).transfer(withdrawalAddress, amount), \"Withdrawal failed\");\r\n        emit FeesWithdrawn(amount, withdrawalAddress);\r\n    }\r\n    \r\n     function relay(uint escrowId, string memory instructions) external onlyRelayer {\r\n        Escrow storage escrow = escrows[escrowId];\r\n        require(escrow.status == EscrowStatus.Pending, \"Escrow not in pending state\");\r\n        emit EscrowRelayed(escrowId, instructions);\r\n    }\r\n\r\n    \r\n    function resolveDispute(uint escrowId, address recipient) external onlyArbitrator {\r\n        Escrow storage escrow = escrows[escrowId];\r\n        require(escrow.status == EscrowStatus.Pending, \"Escrow not in pending state\");\r\n        escrow.status = EscrowStatus.Released;\r\n        require(IERC20(usdtToken).transfer(recipient, escrow.amount), \"Transfer failed\");\r\n        platformFees += escrow.fee;\r\n        emit DisputeResolved(escrowId, recipient, escrow.amount);\r\n    }\r\n\r\n   \r\n    function createEscrow(address buyer, uint amount) external {\r\n        require(buyer != address(0), \"Invalid buyer address\");\r\n        require(amount > 0, \"Amount must be greater than zero\");\r\n\r\n       \r\n        uint fee = (amount * feeToBePayed) / 10000;\r\n   \r\n        IERC20(usdtToken).transferFrom(msg.sender, address(this), amount);\r\n\r\n        \r\n        uint escrowId = escrowCounter++;\r\n        \r\n        \r\n        escrows[escrowId] = Escrow({\r\n            seller: msg.sender,\r\n            buyer: buyer,\r\n            amount: amount - fee, \r\n            fee: fee,\r\n            status: EscrowStatus.Pending\r\n        });\r\n        emit EscrowCreated(escrowId, msg.sender, buyer, amount - fee, fee);\r\n    }\r\n    \r\n    function releaseEscrow(uint escrowId) external {\r\n        Escrow storage escrow = escrows[escrowId];\r\n        require(escrow.status == EscrowStatus.Pending, \"Escrow not in pending state\");\r\n        require(msg.sender == escrow.seller, \"Only the seller can release the escrow\");\r\n         \r\n        escrow.status = EscrowStatus.Released;\r\n        require(IERC20(usdtToken).transfer((escrow.buyer), escrow.amount), \"Transfer to buyer failed\");\r\n        platformFees += escrow.fee;\r\n        \r\n        emit EscrowReleased(escrowId, escrow.buyer, escrow.amount, escrow.fee);\r\n    }\r\n    \r\n    function cancelEscrow(uint escrowId) external {\r\n        Escrow storage escrow = escrows[escrowId];\r\n        require(escrow.status == EscrowStatus.Pending, \"Escrow not in pending state\");\r\n        require(msg.sender == escrow.seller, \"Only the seller can cancel the escrow\");\r\n        escrow.status = EscrowStatus.Cancelled;\r\n        require(IERC20(usdtToken).transfer(escrow.seller, escrow.amount + escrow.fee), \"Refund to seller failed\");\r\n        emit EscrowCancelled(escrowId, escrow.seller, escrow.amount + escrow.fee);\r\n    }\r\n    \r\n    \r\n}\r\n",
  "sourcePath": "C:\\Users\\Funso Faleye\\Desktop\\EscrowContractTron\\EscrowContract\\contracts\\MyEscrowContract.sol",
  "compiler": {
    "name": "solc",
    "version": "0.8.21+commit.d9974bed.Emscripten.clang"
  },
  "schemaVersion": "3.4.16",
  "updatedAt": "2025-01-11T21:58:31.324Z",
  "devdoc": {
    "kind": "dev",
    "methods": {},
    "version": 1
  },
  "userdoc": {
    "kind": "user",
    "methods": {},
    "version": 1
  }
}